:020000040800F2
:100000000011002001010008271A000895160008B9
:10001000251A000875010008D5320008000000000C
:100020000000000000000000000000007120000837
:1000300077010008000000005B1B00087320000827
:100040001B0100081B0100081B0100081B01000820
:100050001B0100081B0100081B0100081B01000810
:100060001B0100081B0100081B0100081B01000800
:100070001B0100081B0100081B0100081B010008F0
:100080001B0100081B0100081B0100081B010008E0
:10009000093200081B0100081B0100081B010008B1
:1000A0001B0100081B0100081B0100081B010008C0
:1000B0001B0100081B0100081B0100081B010008B0
:1000C0001B0100081B0100081B0100081B010008A0
:1000D0001B0100081B0100081B0100081B01000890
:1000E0001B0100081B0100081B010008DFF80CD0F1
:1000F00000F028F800480047A53300080011002050
:100100000648804706480047FEE7FEE7FEE7FEE7B1
:10011000FEE7FEE7FEE7FEE7FEE7FEE7D520000884
:10012000ED000008202A04DB203A21FA02F0002129
:10013000704721FA02F3D040C2F1200291400843F7
:10014000194670471CB509480090094801900546BA
:10015000009C06E0E06840F0010394E8070098473F
:100160001034AC42F6D3FFF7C5FF0000443400085A
:1001700064340008FEE7704770470000834900229E
:10018000CA6183490A6842F002020A60486008684E
:1001900040F040000860704725480168C90601D456
:1001A000002105E07949CA6942F00202CA611021C2
:1001B0000268520706D5754A41F00401D36943F03D
:1001C0000103D3610269D20708D0704AD36943F0B2
:1001D0000403D361026922F00102026101607047E9
:1001E000F8B5134E044600F033FA0546671C306834
:1001F000C00709D0002FFAD024B100F029FA401B23
:10020000A042F4D90320F8BD3068800644BF202006
:1002100030603068C00607D43069C00704D1306848
:1002200040075CBF0020F8BDFFF7B6FF0120F8BD16
:100230000C200240B0B5044600F00AFA0546054815
:10024000611C007818BF044400F002FA401BA04271
:10025000FAD3B0BD000000202DE9F041DFF82C8179
:10026000054698F81800012801D1022021E001205C
:100270002E680C4688F8180001F0F6FB022E13D108
:1002800098B90020424CC8F81C00206840F00400D7
:100290002060206840F04000206001F0E5FB21680C
:1002A00021F00401216001E030B10120002188F833
:1002B0001810C0B2BDE8F0814FF0FF30344F20601D
:1002C0000120A9680E46EA6801EB82218E42EDD238
:1002D0003046FFF753FF01F0C7FB396821F00201F8
:1002E000396020B9A96806F580660020EBE7266032
:1002F000DCE700BF2648016841F080010160002072
:10030000704700BF2DE9F84FDFF88080074698F866
:100310001800012804BF0220BDE8F88F01209A468A
:1003200093460E4688F818004CF25030FFF758FFFD
:1003300038BB3846022F18BF0420012F08BF3846AB
:10034000134FC4B200255FFA85F900204C4518D937
:10035000C8F81C004FEA09125146386840F0010005
:1003600038605846FFF7DEFE26F819004CF2503090
:10037000FFF736FF39680135002821F001013960A7
:10038000E1D0002188F81810BDE8F88FD80C0020C3
:10039000102002400648C16809065CBF0020704773
:1003A0000449016004490160C068C0B2C0097047D7
:1003B0000420024023016745AB89EFCD2DE9F84FBA
:1003C000924A6FF01F0E4FF001084FF00F09904254
:1003D0004FF0040208BF0322009200248C4AA2F5C9
:1003E0007E7A31FA04F208BFBDE8F88F08FA04F209
:1003F0000A4048D024F003035AF803B08C4B9842CB
:1004000008D08C4B984207D08B4B009F984208BF76
:10041000022702E0002700E001270EF1200303F08D
:100420000C0C09FA0CF607FA0CF70BEA0605BD42AC
:1004300014D1A5085AF8257027EA06064AF825605F
:10044000734E356895433560756895437560B5683A
:100450009543B5606F4E356895433560D643054684
:10046000B2F5807F28BF734628BF04352F6809FA8C
:1004700003F227EA0202042707FA03F31A432A6069
:10048000C2683240C2600EF1040E0134A9E700BF19
:100490002DE9FC4F5D4A04234FF0000A4FF001089C
:1004A0004FF00F0E4FF00009904208BF0323009356
:1004B00000250A6832FA05F408BFBDE8FC8F08FA87
:1004C00005F712EA070C00F09D804C68032C16D942
:1004D000112C24D0122C26D04F4A944213D04F4ACC
:1004E000944210D04E4A94420DD04E4A94420AD0C3
:1004F0004D4A944207D04D4A944204D020E0DFE8B0
:1005000004F00216191D8C6834B1012C14BF476128
:1005100007614FF0080913E04FF0040910E0CC68C0
:1005200004F104090CE0CC6804F10C0908E0D1F8EE
:100530000C9005E0CC6804F1080901E04FF00009D7
:1005400054460746BCF5807F28BF203C28BF0437AF
:100550003B680EFA04F609FA04F4B34323433B6004
:10056000CB79DB064ED5684A136843F0010313606C
:100570001368274A03F00103A2F57E742C4A019305
:10058000019B904225F0030354F803B008D0294A98
:10059000904207D0284A009E904208BF022602E0FF
:1005A000002600E001260AF00C03AA080EFA03F761
:1005B00006FA03F32BEA07073B4344F82230144BB7
:1005C0004F68FA031A6854BF22EA0C0442EA0C048A
:1005D0001C60BA035A6854BF22EA0C0442EA0C04B5
:1005E0005C60FA029A6854BF22EA0C0442EA0C04E6
:1005F0009C60084BBA021A6854BF22EA0C0242EA15
:100600000C021A600AF1040A013552E70014014095
:10061000000401400C040140000011100000121001
:1006200000002110000022100000311000003210E4
:1006300000080140000C01400010014080680840A3
:1006400018BF01207047002A08BF090401617047E4
:1006500005480068704700BF1B48034900780A68D6
:1006600010440860704700BFF80C002080B50748B0
:10067000016841F010010160032000F07BF80020C8
:1006800000F006F800F024F8002080BD00200240B1
:1006900070B50D4E04464FF47A713078B1FBF0F02E
:1006A0000A490968B1FBF0F000F0E0FF01250F2CCA
:1006B00008D838B94FF0FF3021460022002500F05D
:1006C00033F87460284670BD00000020240000202C
:1006D00082B00D480222016841F001010160016809
:1006E00001F0010101910199416841F0805141609F
:1006F000406800F08050009000980448016862F360
:100700001A61016002B070471810024004000140F5
:10071000002805D4734601F09EF99E46014A885090
:10072000704700BF00E100E0F0B5184B4FF0FF3616
:100730001C68C4F30224E51E84F0070438BF0025BA
:1007400006FA05F7BA43042C28BF042406FA04F479
:10075000A14300F00F04A940043C1143044A234480
:1007600009010244002848BF03F10C021170F0BDDA
:1007700000E400E005494FF6FF030A681A4060F301
:100780000A22034810430860704700BF0CED00E0E8
:100790000000FA05B0B501F0070500EB411400EBCD
:1007A00045102830090658BF04F5947012B1012194
:1007B000836001E0C380002101730020B0BD704759
:1007C00000EB4112D0F86802D26B01F0AEBD00EB35
:1007D0004112D0F86802D2F83C2101F005BE10B5F4
:1007E000044601F024F9C3BF002281F8292101F554
:1007F00094710122DCBF81F829202831087094F817
:100800002802012804BF022010BD01F094F902F073
:100810004DFB01F03EB9B0B50446406801F00F024F
:10082000824201D901251BE001F001F9C3BF00227A
:1008300081F8292101F594710122DCBF81F829207A
:1008400028310870002594F828028D70012801D104
:10085000022505E001F06FF902F0A0FB84F82852B0
:100860002846B0BD10B501F03DF904BF022010BD0F
:1008700001204AB284F828022068B2F1FF3F02DD6D
:1008800002F0BEFC03E001F0070102F0BBFC01F046
:1008900000B901F0070100EB4110D0F844017047A6
:1008A000B0B5044601F0C3F8C3BF002581F8295153
:1008B00001F594710125DCBF81F8295028310A61C6
:1008C000CB7008704A7802B1C881022B04BF0020A7
:1008D000087194F82802012804BF0220B0BD01F07D
:1008E0002AF902F0BBF9002084F82802B0BDB0B5A7
:1008F00001F00701002500EB4114006804F59E7724
:1009000084F8281104F5947184F829512CC702F059
:1009100095FB0020B0BDB0B50446406801F0070566
:10092000854284BF0120B0BD48B2B0F1FF3F07DD72
:1009300004EB4110002180F8291100F5947106E0C4
:1009400004EB4510012180F8291000F1280194F8EA
:10095000282201200D708870012A04BF0220B0BD3A
:1009600084F82802206802F051FB25B9206804F5BC
:100970000C7102F011FB002084F82802B0BD10B504
:1009800001F0070400EB4411006801F8284F00242F
:1009900001F1140CACE81C0001224A7002F04EFB7D
:1009A000002010BD2DE9F84F0446006802F032FC2B
:1009B000000400F18080206802F02CFC40050DD579
:1009C0002068B0F8441021F48061A0F8441020465B
:1009D00000F046FA2046002100F05CFA206802F0A0
:1009E00019FC01462068490405D5B0F8441021F4EB
:1009F0008041A0F8441002F00DFC014620688904F3
:100A000005D5B0F8441021F40051A0F8441002F0CC
:100A100001FC01462068C90410D5B0F8401021F04F
:100A20000401A0F84010B0F8401021F00801A0F82F
:100A30004010204600F026FA01F082F802F0EAFBAE
:100A400000051BD52068B0F8401041F00801A0F85F
:100A50004010B0F8441021F40061A0F84410B0F840
:100A6000401041F00401A0F8401002F0D3FBC00494
:100A700001D501F065F8204600F032FA206802F056
:100A8000C9FB800509D52068B0F8441021F4007135
:100A9000A0F84410204600F0F9F9206802F0BAFBF3
:100AA000C00506D52068B0F8441021F48071A0F884
:100AB0004410BDE8F88F04F50C7040F60F770090F5
:100AC0002068B0F94410B1F1FF3F3FF775AFB0F8BF
:100AD000442012F00F0B2DD030F92B904FEA4B0A27
:100AE000B9F1FF3F00F3F18030F81A1004EB4B1519
:100AF00005F594783940803120F81A1095F83411B2
:100B0000002900F09F8098F8001000EB011230F8E7
:100B100021104904B0F8501002EB410100F1A5800A
:100B2000B1F80C646FF39F26002E00F0A880B5F892
:100B30003221A1E00188D2062AD4394001F50041D2
:100B40000180B0F8501000EB410094F8281000EB41
:100B50000110E16BB0F804046FF39F206064084457
:100B60000021E0632046FFF72BFE94F824000028C4
:100B7000A6D0206C0028A3D1206894F8241041F05E
:100B80008001C9B2A0F84C10002084F8240097E737
:100B90000A053BD409B2B1F1FF3F91DC018800F2B4
:100BA0000C42394080310180B0F8501094F828315F
:100BB00002EB41011B01CB5A6FF39F23C4F8443170
:100BC000A3B1D4F83C1189B1B4F82E2102F025FB71
:100BD000D4F83C01D4F8441108440021C4F83C0185
:100BE0002046FFF7F4FD206800F20C42D4F83831BB
:100BF000B0F85010002B00F092803E2B00F297804E
:100C000003F0010505EB53039B029BE0B0F8501085
:100C100094F8282100EB410101EB0211B4F82E21D8
:100C2000B1F80C3400996FF39F23C4F8443102F0FB
:100C3000F4FA20680188394080310180204600F0B4
:100C400037F93DE7B0F8501098F8002000EB41016B
:100C500001EB0211B1F80C646FF39F26002E5CD0FB
:100C6000B5F82E2100F074FF15E0B1F804646FF3BD
:100C70009F2626B1B5F8302100F06AFF00E000267B
:100C800098F80000216848F2C00331F820203A406B
:100C90001A4321F82020D5E94F03D5F844118219D1
:100CA0003144C5F84411C5F83C214BB1D5F83801A1
:100CB00098F80010B04205D82046FFF718FE04E06F
:100CC00098F800102046FFF782FD1FFA89F0000611
:100CD0007FF5F6AE206804EB4B1330F81A1039405C
:100CE00001F5004120F81A10B0F85010DA6B00EB53
:100CF000410093F8281000EB0110B0F804046FF3E2
:100D00009F20024458642046DA631B6C13B1FFF73E
:100D100036FED5E6FFF754FDD2E60026BBE7535A70
:100D20000E4D23F4F8435352535A2B430AE0DD0689
:100D30004FF0FF364FEA531508BF06EB5315074B2C
:100D400043EA8523535243F60F720188114048F25B
:100D5000C00202F53F5251400180B1E60080FFFF22
:100D6000F0B585B000284FD0044690F8290228B984
:100D7000002084F82802204600F054F8032084F86C
:100D80002902206802F001F994E8EF508DE8E05064
:100D900002F08AF8A8BB20680021002502F084FA3E
:100DA000616801200022D3B299420DD904EB4316A9
:100DB00086F82820F38686F82900C6E90E553564A2
:100DC00086F82B500132EEE700200022D3B2994280
:100DD0000DD904EB431383F82821C3E94E00C3F86F
:100DE000400183F82B0183F829010132EEE704F179
:100DF000080E20689EE8EC508DE8E05002F0B5F84F
:100E000030B1022084F829020125284605B0F0BD42
:100E10000025012084F8245084F82902206802F07B
:100E2000A2F8F2E700680C49884218BF7047E0B5A5
:100E30000A480022016841F40001016000210068B5
:100E400000F40000019001981420FFF76DFC1420BD
:100E5000BDE88C40FFF75CBC005C00401C10024009
:100E600010B504468068022818BFFFF785F9D4F84A
:100E70006802012101F0A0FBD4F86802BDE810402F
:100E800001F05ABBD0F8680201F07EBBD0F86802CE
:100E900001F084BB10B500F025FE04BF022010BD98
:100EA00084F8241000F047FE02F000FA00F0F1BDD3
:100EB000D0F8682200F50C71104601F089BB10B51E
:100EC00000F010FE04BF022010BD00F025FE2068D7
:100ED00002F047F8206802F08DF900F0DABD00005A
:100EE00010B50446D0F8680201F0AFFBA06920B14C
:100EF0000248016841F00601016010BD10ED00E0FC
:100F0000014801210160704720000E42012810D0E5
:100F1000022822D010281ED126494A680868C0013C
:100F200019D5C2F3834024A3D203185C24D4CA4A3F
:100F30002AE02049086A00F44072B2F5407F2CD0C4
:100F4000B2F5007F2ED0B2F5807F02BF4FF4004192
:100F500001EA803070470020704780B500F048F902
:100F6000144902224968C1F3813102EB4101B0FB0F
:100F7000F1F0BDE8804070474A6813A3C2F34042D5
:100F80009A5CAF4BB3FBF2F2496850434902F2D48A
:100F900040000321B0FBF1F0704708684FF2244194
:100FA000800303E0486A49F64041800701EAE070A7
:100FB000704700BF0010024002030405060708093D
:100FC0000A0B0C0D0E0F1010010200002DE9FC4160
:100FD00004460078994EC00743D0B0695FEAC00864
:100FE00008D4B06940F08050B061B06900F0805022
:100FF000019001982C4F3868C00511D4386840F42E
:1010000080703860FFF724FB05463868C00507D4B8
:10101000FFF71EFB401B6428F7D90320BDE8FC81C5
:10102000F06910F440700FD0616801F4407188429B
:101030000AD01E49F06901220A6000220A6020F4E9
:101040004071C007F16120D16068F16921F44071FD
:101050000843B8F1000FF06103D4B06920F080506C
:10106000B0612068810705D5A168326822F440424A
:1010700011433160C00605D5E068316821F4800174
:10108000084330600020BDE8FC81FFF7E1FA054627
:1010900041F28837F0698007D6D4FFF7D9FA411BAF
:1010A0000320B942F6D9EEE7007000404004424206
:1010B000002865D02DE9F84388464A490446086867
:1010C00000F0070040450AD2086820F0070040EA17
:1010D00008000860086800F0070040455BD1206800
:1010E000564B8946810711D5410703D5196841F44C
:1010F000E0611960010703D5196841F46051196076
:10110000A1681A6822F0F00211431960C00739D1B2
:10111000D9F8000000F0070040450DD9D9F80000CB
:1011200020F0070040EA0800C9F80000D9F80000E4
:1011300000F0070040452ED12068410705D5E16841
:101140001A6822F4E06211431960000706D520698D
:10115000196821F4605141EAC00018601C4600F093
:1011600053F82168204AC1F30311515CC840F94982
:1011700008601E480068FFF78BFA0020BDE8F8837E
:10118000012070476068022808D0012825D153F853
:10119000041C890306D40120BDE8F88353F8041C1D
:1011A0008901F8D519681D4621F00301084318602C
:1011B000FFF74EFA064641F28837606829682B46E9
:1011C00001F00C01B1EB800FA2D0FFF741FA801BB8
:1011D000B842F2D90320BDE8F88353F8041C89070C
:1011E000D9D5DFE700200240F033000804000020DA
:1011F000D8481249034A00680968C1F3C221515C0A
:10120000C84070470034000810B50C490C480A6803
:1012100002F00C03082B07D1C2F3834309A4D203C5
:10122000E35C02D40C48584310BD096809A2584336
:10123000C1F34041515CB0FBF1F010BD041002401D
:1012400000127A0002030405060708090A0B0C0DB8
:101250000E0F10100102000000093D0000B32DE93F
:10126000FC4104460078B94EC00722D0706800F0F7
:101270000C00042816D000F041FC02D17068C003B5
:1012800010D46068002800F01881B0F5A02F00F09D
:101290002581B0F5803F00F0258100F0D4FB24E1EA
:1012A000012070473068800303D56068002800F093
:1012B00099802078800717D5706810F00C0F05D042
:1012C00000F01CFC25D17068C00322D43068800770
:1012D00003D52069012840F085806069316821F0DC
:1012E000F80141EAC00030602078000741D5A069CC
:1012F00010B397480121C0F88014FFF7A9F90546FB
:10130000706A800728D4FFF7A3F9401B0228F7D999
:10131000F8E021698E48002900F08E8001210160EB
:10132000FFF796F9054630688007D6D4FFF790F9A5
:10133000401B0228F7D9E5E085480021C0F8801459
:10134000FFF786F90546706A800712D5FFF780F926
:10135000401B0228F7D9D5E07E484FF4FA510068C7
:10136000B0FBF1F0019000BF0198411E00280191EF
:10137000F9D12078400714D4E7697FB100F0BEFBB3
:101380003CD1012F2ED0216A706800F480328A424D
:1013900028D1616A00F47010884223D10020BDE892
:1013A000FC81F0695FEAC00808D4F06940F0805021
:1013B000F061F06900F0805000900098664F386846
:1013C000C00512D4386840F480703860FFF740F9E7
:1013D00005463868C00508D4FFF73AF9401B642871
:1013E000F7D98FE00120BDE8FC81E068A0B30528B3
:1013F00044D0012846D000F05BFB46E05449002071
:1014000088460866FFF724F90546022F0AD14746A9
:101410003068800179D5FFF71BF9411B03200229B1
:10142000F6D9BCE730688001B8D5FFF711F9411B48
:1014300003200229F6D9B2E700210160FFF708F97D
:101440000546306880077FF54FAFFFF701F9411B74
:1014500003200229F5D9A2E700F02AFB3062FFF74A
:10146000F7F8054641F28837306A80071CD5FFF748
:10147000EFF8411B0320B942F6D990E7306A40F0FB
:1014800004003062306A40F001003062FFF7E0F89B
:10149000054641F28837306A800705D4FFF7D8F84F
:1014A000401BB842F7D92DE0B8F1000F3FF564AF0B
:1014B000F06920F08050F0615EE700F0C4FA30601F
:1014C000FFF7C6F80546306880037FF5F2AEFFF7F8
:1014D000BFF8411B03206429F5D960E7306840F468
:1014E00080203060306840F480303060FFF7B0F822
:1014F0000546306880033FF5DCAEFFF7A9F8401BD6
:101500006428F6D90320BDE8FC81206AB0F5803F4D
:1015100005D1A168726822F4003211437160616ADA
:10152000726822F474121143084370600120386617
:10153000FFF78EF80446306880013FF52FAFFFF7C4
:1015400087F8011B03200229F5D928E70010024083
:10155000000042422400002000700040B0B5002886
:101560003ED00446407C20B900202074204600F084
:1015700045F802206074204600F05CF860BB20460D
:1015800000F0ECFA40BB2168A0684A6822F007022C
:101590004A60194A18B1536823F001035360136875
:1015A00023F46073184310606068421C06D1012068
:1015B0000125FFF7ABFC80B1216801388A6822F071
:1015C0000F0242EA10428A60CA6860F30F022046A6
:1015D000CA6000F0DBFA30B101250420607400E03D
:1015E00001252846B0BD40F201100025A4F80D00E9
:1015F0000120E573F2E700BF2C6C00400068F4495D
:10160000884200D07047E0B5FFF77AFC07480168D0
:1016100041F0006101600121006800F0006001906C
:10162000019803480160BDE88C4070471C100240DF
:101630003C044242A8B1B0B504460068416821F0BC
:1016400008014160FFF704F805462068406800077C
:1016500009D4FEF7FDFF401BB0F57A7FF5D90320D2
:10166000B0BD012070470020B0BD0000411E002029
:10167000B0EB116F1CBF01207047044AF02351608A
:1016800003490B70072190601160704710E000E083
:1016900023ED00E0FEE770B501310023372472B17D
:1016A000060F01F8023B04EB1075B0F1204F38BF74
:1016B00006F1300501F8035C013A0001EFE770BD67
:1016C000B0B5B84C0546042101222046FEF7BBFF09
:1016D000681EFEF7AFFD204604210022FEF7B3FF8F
:1016E000A4F580600121FEF7A9FF40F2F311012863
:1016F00008BF63210846BDE8B040FEF79BBD00BFB0
:10170000B0B5D0F8B852044695F8180468B1204630
:10171000812100F088FF687A022818BFB0BD00F070
:10172000ADF9BDE8B04000F0FEBED5F814040028C5
:10173000EDD0687A0028EAD12046012100F073FF3D
:10174000E5E710B5D0F8B842627A022A05D18121C6
:1017500000F069FF0020607210BD49B2B1F1FF3F97
:1017600000DD10BD012AFCD00121BDE8104000F0D1
:10177000B3B810B50446D0F8B802017ACA1E022ADE
:1017800005D200212046BDE8104000F0A5B802298E
:1017900009D190F8191400F21B42204600F022FAF9
:1017A000B0F1FF3F00DD10BD0121EBE7B0B5D0F88F
:1017B000B8520446287A01282AD080BBD5F81004F4
:1017C000D5F81414C5F83004C5F8341420460121A6
:1017D00000F052FE1F280DD1D5F80C04284988428C
:1017E00008D195F81914012904D895F81A0408B1FC
:1017F000112815D395F8191420460522202300F04E
:10180000FFFB022068722046BDE8B040FFF778BFBA
:1018100095F8191400F057F9B0F1FF3F27DDB0BD7E
:1018200000F051F9297AB0F1FF3F1EDD481E032870
:10183000F5D3688908B3D4F8B8120022D1F834344B
:1018400081F8382404220A72D1F814241B1AC1F832
:101850003434824238BF104683B205F10C02204670
:101860008121BDE8B04000F0F9BE0529CBD120466A
:101870000121BDE8B04000F02FB820460021F8E774
:1018800055534243D0F8B802002101727047B0B5F9
:101890000446D0E9AE5000212981A5F85C14016806
:1018A000002088472046012100F0DDFD20468121EF
:1018B00000F0D9FD00F0E2F8BDE8B04000F033BE22
:1018C000D0F8B8124FF480721F230A8101F20C4243
:1018D000012100F028BE0000B0B5D0F8B85204468F
:1018E00009480D23C5F82C04002085F8381405F2AA
:1018F0002C4281212872204600F0B0FE00F0BEF894
:10190000BDE8B04000F00FBE555342532DE9F043FF
:1019100085B04FF000092248224C00224FF0040805
:10192000CDF81090016841F010010160016801F0EC
:10193000100100910099016841F0200101600168E7
:1019400001F0200100910099016841F0040101605B
:10195000016801F0040100910099016841F008015B
:1019600001600421006800F0080000900098204603
:10197000FEF769FE02270126A4F58060CDE90297F3
:10198000019601AD2946FEF783FD20462946CDE9A3
:101990000397CDE90186FEF77BFD05B0BDE8F08336
:1019A00018100240000C014080B50848084B4FF465
:1019B00080714FF0FF32C0E900328160FFF7CEFD49
:1019C00018B1BDE88040FEF7D7BB80BDC40C002035
:1019D0000028004080B50F480F49002200F07EFC2F
:1019E00008B1FEF7C9FB0B480C4900F042FF08B1F3
:1019F000FEF7C2FB07480A4900F09AFE08B1FEF75D
:101A0000BBFB044800F049FF18B1BDE88040FEF779
:101A1000B3BB80BD940700200800002040000020D8
:101A2000E4000020FEE77047214600F029BC01F0E9
:101A3000070049B2B1F1FF3F04EB40117047A0F835
:101A4000401000207047306820F4803030603068EB
:101A500020F4802070471C21012201EAD00100F00F
:101A60001F0002FA00F070474CF25030FEF7B8BB8E
:101A7000D4F8B402294682682046104705F20C4289
:101A8000204601211F237047D4F8BC0281682846F4
:101A90000847002084F8280210BD30F8113040F6C5
:101AA0000F74234002F58044234320F8113070471F
:101AB000306A20F001003062306A20F00400704784
:101AC000204600F044BB05F21B42204600F08AB8D5
:101AD000D7F86414D7F86824801BC7F83404B7F823
:101AE0005E047047044690F8280201287047287861
:101AF00040F60F7234F8201011407047706800F003
:101B00000C0008287047204600F044BB8BB2013916
:101B1000C418D35C237370470120012184F8280284
:101B20002046FEF74CBE94F89C020138022870470C
:101B3000002300F065BA012084F82802206870476D
:101B40002068B0F8441021F48051A0F84410704788
:101B5000D5F83C11334601F060BB7047B0B5044680
:101B6000FEF776FD054620684168890608D4FEF731
:101B70006FFD401BB0F57A7F84BF0320B0BDF2E754
:101B8000416841F0100141600020B0BDB0B504468D
:101B90000068416821F010014160FEF759FD0546DB
:101BA00020684068800644BF0020B0BDFEF750FDAD
:101BB000401BB0F57A7F84BF0320B0BDF0E79918D1
:101BC000D0F8B822D2F86024914208D980B500211B
:101BD0000522FFF7ADFFFF20BDE8804000E00020B8
:101BE00040B270472DE9FC41044610780D46164678
:101BF000A0F11A0110290FD8DFE801F037093030C1
:101C0000093030303043304F303060309D00D4F8F0
:101C1000B80200254581E9E15A2800F0D480032864
:101C200000F0DD80122800F0E3802F2800F0FC8017
:101C3000A0B9D4F8B862D6F81404002840F0AD81F9
:101C4000FFF722FF0025002800F000812046002138
:101C50000222FFF76DFF05203072C7E12046002108
:101C60000522FFF765FFFF25C0E1D4F8B80208217F
:101C7000E14A418107214B1C00F0B781FFF746FF85
:101C8000F9E7D4F8B8620021002206F10C000C2A12
:101C900000F0888081540132F9E7D4E9AE604368EE
:101CA00006F58C6106F25E4228469847002800F04F
:101CB0000181002520460021022272E1D4F8B88279
:101CC00098F808004746002800F00881B7F85E043D
:101CD000D7F868144FF48066D7F86424A8F80A602F
:101CE00007F10C084143B1F5806F38BF0E46B6FBD3
:101CF000F0F3D4F8BC024146D0F810C02846E047C3
:101D0000B0F1FF3F40F3C780B5B220468121424683
:101D10002B4600F0A3FCD7F83404FFF7D9FEB5FB3F
:101D2000F0F00144101AC7F86414C7F8680404BF3F
:101D30000320387259E1D4F8B872387A002800F0DC
:101D4000F580B7F85E04D7F86814D7F8642407F173
:101D50000C0801FB00F64146B6F5806F28BF4FF432
:101D60008066B6FBF0F3D4F8BC02D0F814C0284665
:101D7000E047B0F1FF3F40F38E80D7F83404B3B2B0
:101D8000FFF7A6FEB3FBF0F3CD18D11AC7F86454E1
:101D9000C7F8681440F01D81204600210025FFF798
:101DA0009BFD23E1D4F8BC0269460DF106024368AD
:101DB00028469847002800F0F7802046002102229C
:101DC000FFF7B6FE11E1D4F8B8020821894A418133
:101DD00007214B1C00F00981FFF798FEF9E7D4F8C2
:101DE000B8020C2100221E2932D042540131FAE7F8
:101DF0007178D4F8B802C90752D1D4F8BC2205EBE7
:101E0000C501D26902EB810211794B1D31798B42F8
:101E100038BF19464181013A0B30002900F0E580B6
:101E2000535C43540139F8E77078800700F1B580BE
:101E3000D4F8B86220462946D6F86424D6F8683427
:101E4000FFF7BDFE0025002800F1D0807581CDE0B0
:101E50000C2190F85D24C1747021017390F85C141A
:101E6000914211D000EBC102013192F83C3492F85A
:101E7000404492F841240276CAB283734476043A0D
:101E800018BF0A4680F85C24122141813179122959
:101E900098BF4181A9E0002520460021042280E06E
:101EA0000721564A418106214B1C00F09E80FFF716
:101EB0002DFEF9E7082000257081D6F860043582F0
:101EC0000138010AF073B173010C000E3073B6F8DB
:101ED0005E04717300BA000C708287E098F91804F0
:101EE00000285AD5FFF7D0FD00287FF4E2AED6F8DF
:101EF0000200294602BAC8F86424B6F8070043BABB
:101F00002046C8F86834FFF75AFE00286DD4022036
:101F1000D8F86824D8F8141488F80800B8F85E04D3
:101F20005043814239D1D4F8B872CFE697F91804FA
:101F3000B0F1FF3F31DDFFF7A7FD00287FF4B9AE18
:101F4000D4F8BC02C1682846884700287FF4B1AEA7
:101F5000D6F80200294602BAC7F86424B6F807008A
:101F600043BA2046C7F86834FFF729FE00283CD45E
:101F7000B7F85E04D7F86824D7F8141402FB00F30E
:101F800099420AD1012007F10C02B3F5806F387233
:101F900028BF4FF48063204624E00025204600211E
:101FA0000522FFF7C5FD21E00820F0730220B08272
:101FB0000C20708100980138010AF074B174010C92
:101FC000000E3074BDF80600717400BA000CF08287
:101FD0000BE001FB00F320464246B3F5806F28BFBB
:101FE0004FF48063012100F09EFA002568B2BDE83D
:101FF000FC8100BF083400081034000818340008C1
:1020000010B5D0F8B802002490F85D1400EBC103BD
:10201000013183F83C24CAB283F84044043A18BF23
:102020000A4680F85D2410BD4FF4806010802020A7
:102030000860002070470020704780B501F04BF920
:10204000002080BD002070470020704780B5084602
:1020500091024FF4806201F043F9002080BD80B509
:10206000084691024FF4806201F04AF9002080BDD9
:102070007047FEF7F1BAB0B594B04FF4E010002409
:102080000225012113904FF48030CDE90F441195C2
:10209000CDE90D1103941290CDE90B0405200A90AF
:1020A0000AA8FFF7DBF84FF480600994CDE90654E5
:1020B000022108900F20059005A8FEF7F9FF4FF4C4
:1020C0008070049402901120019001A8FEF77EFF19
:1020D00014B0B0BD0E480F4A016841F00101016023
:1020E000416811400C4A416001681140016001687B
:1020F00021F480210160416821F4FE0141604FF428
:102100001F01816005484FF000610160704700BF0A
:10211000001002400000FFF8FFFFF6FE08ED00E0AF
:1021200080B5D0F8B42252689047002080BD80B5B9
:1021300013460A46002100F0F6F9002080BD80B564
:1021400013460A46002100F089FA002080BD10B530
:102150008021044600F067FA20460021BDE81040C7
:1021600000F061BA80B5052100220023C0F8941266
:10217000002100F0D8F9002080BD80B513460A4642
:102180000221C0F894120021C0E9073300F066FA7A
:10219000002080BD80B5042100220023C0F89412E5
:1021A000002100F05BFA002080BD000010B5264C35
:1021B0000A4602A0FFF738FC204610BD4D534320CD
:1021C000436F6E6669670000122008800048704700
:1021D0002800002010B51C4C0A4602A0FFF724FC82
:1021E000204610BD4D534320496E7465726661638D
:1021F0006500000004200880004870473C00002073
:1022000010B5114C0A4602A0FFF70EFC204610BD87
:1022100053544D6963726F656C656374726F6E6958
:102220006373000010B5084C0A4602A0FFF7FCFBE0
:10223000204610BD53544D3332204D6173732053EB
:10224000746F72616765000024010020B0B51A2028
:102250000880094908688A6880180BD0074D4C68C7
:102260000822A91CFFF717FA05F1120120460422E3
:10227000FFF711FA0148B0BDE8F7FF1F0401002085
:10228000F0B1B0B500230446257815B1013401330F
:10229000FAE7DCB2022303EB440414800C7003223F
:1022A00001240A5502784AB1DCB29D1C01300A555E
:1022B00043F001022B46D4B20022F2E7BDE8B04061
:1022C00070470000C1000223034A042838BF22FAE5
:1022D00001F3D8B2704700BF0002010288B1D0F804
:1022E000B43213B10023C0F8B43209B1C0F8B0124F
:1022F00080B50121027080F89C1200F0C1F8002026
:1023000080BD0220704780B5D0F8C002FEF783FA86
:10231000BDE88040FFF7D6BF80B5D0F8C002FEF719
:102320005EFABDE88040FFF7CDBFB0B5044669B1A5
:10233000D4F8B40242693AB194F89C02032803D15C
:10234000204690470020B0BD0220B0BDD4F89402D2
:10235000B0B1042814D0022816D1D4E90810814263
:102360001BD9081A114683B2206220461A46FFF78D
:10237000E6FE204600210022002300F0D4F803E00E
:102380002046802100F04FF994F8A0120020012986
:1023900004BF84F8A002B0BDB0BDE169B1FBF0F2AA
:1023A00002FB101272B981420CD3D4F89802814218
:1023B00008D22046002100220025FFF7C0FEC4F805
:1023C0009852D6E7D4F8B402C16829B194F89C02B7
:1023D000032801D1204688472046802100F023F9B8
:1023E0002046FFF7BFFECFE7B0B5044661B1D4F891
:1023F000B402826932B194F89C02032802D12046CB
:1024000090472DE002252CE0D4F894020025052801
:1024100012D0032825D1D4E95810814213D9091AC2
:10242000C4F86011814238BF084683B21146204685
:102430001A46FFF77CFE13E020460021C4F89452B0
:1024400000F0F1F80DE0D4F8B402016929B194F874
:102450009C02032801D1204688472046FFF79AFEB8
:1024600000252846B0BD80B5D0F8C002FEF7FAF9C5
:10247000BDE88040FFF726BFD0F8C002FEF709BADA
:10248000B0B5044617480021174B0822C0E90611D1
:1024900001620221C4F8C002C0F86842C0E90032FB
:1024A0008160FEF75DFC08B1FDF766FED4F8C0025E
:1024B0000E4D002100221823A847D4F8C002802125
:1024C00000225823A847D4F8C00281210022982373
:1024D000A847D4F8C00201210022D823A847002031
:1024E000B0BD00BF580A0020005C004095070008FE
:1024F000D0F8C00201F07F0249B2002900EB42107F
:1025000000F5957248BF00F12A021078704710B5A7
:102510001446D0F8C0021A462346FEF7C1F9BDE8BA
:102520001040FFF7CFBE80B5D0F8C002FEF7DFF94C
:10253000BDE88040FFF7C6BEF8B500210022402369
:10254000044600254026FFF7E2FF012720468021B0
:1025500000224023C4F86461C4F85871FFF7D7FF24
:10256000D4F8B80284F89C726662A761C4F89452E9
:10257000C4F8A452656028B1D4F8B40200214268BE
:10258000204690470020F8BD90F89C12042904BF13
:1025900090F89D1280F89C120020704790F89C12D1
:1025A000032907D1D0F8B412C96919B180B5884799
:1025B000BDE880400020704701740020704780B55E
:1025C000D0F8C002FEF766FCBDE88040FFF77ABE97
:1025D000B0B500F52A750446284600F03FF9B4F876
:1025E000AE120120C4E9A50194F8A80200F01F0171
:1025F000022907D001290AD071B92046294600F0E6
:1026000051F90EE02046294600F078FA09E020460C
:10261000294600F0FFFA04E000F08001204600F0B7
:1026200002F80020B0BD80B5D0F8C002FEF773F903
:10263000BDE88040FFF746BE80B5D0F8C002FEF787
:102640003EFCBDE88040FFF73DBE90F89C1280F84C
:102650009D12042180F89C120020704780B5D0F8AC
:10266000C002FEF78CF9BDE88040FFF72BBE80B5B5
:10267000FFF77FF8002080BD80B5FFF797F80020B6
:1026800080BDB0B501210446FFF746FE0025204677
:102690008121C4F86C51FFF73FFE2046E562FFF749
:1026A000F1F8D4F8B80218B100F0D2FAC4F8B85270
:1026B0000020B0BD0A21018000487047B80000200A
:1026C00020210180004870477800002020210180EF
:1026D0000048704798000020202101800048704782
:1026E000C4000020F8B50446007C4026002808BF3E
:1026F0004FF40076204633460121022201270225AD
:10270000FFF705FF2046812102223346C4F86C7191
:10271000FFF7FDFE40F26C40E76200F09BFAC4F860
:10272000B80218B12046FFF7B2F800252846F8BDD8
:1027300009B1C0F8BC12002070477CB50446D0F83F
:10274000B86200200D46ADF8060091F9000010F0C7
:10275000600117D0202964D16978FF2924D0FE298F
:102760005FD1698800295CD1E988012959D1B0F18C
:10277000FF3F56DCD4F8BC028069804730602046B9
:1027800031464AE068780B2818D001281DD00A2865
:102790003DD0002845D194F89C02032841D10DF189
:1027A00006012046022239E06988D1BB002838D4CE
:1027B000E888B0BB2046FFF783F84DE094F89C0210
:1027C00003282ED1A878706046E029792046FFF7CB
:1027D0004AFE29792046FFF79FFDA98801F00F00E6
:1027E000090600EB800004EB800020D40021402388
:1027F000C0F85811207C002808BF4FF40073204611
:1028000001210222FFF783FE04F5B6701EE094F862
:102810009C02032805D1311D20460122FFF7ADFCA3
:102820001AE020462946FFF792FC02207CBD0021D9
:1028300040238161207C002808BF4FF400732046AC
:1028400081210222FFF763FE04F12C0001210160C7
:1028500029792046FEF775FF00207CBD0A780270BA
:102860004A7842704A8842808A888280C988C180BA
:10287000704719B1C0F8B4120020704702207047A9
:10288000D0F8B4223AB180B512689047002818BF3A
:102890000120400080BD0220704780B5FFF7CCFECC
:1028A000002080BDBCB5044608780D4610F06000DD
:1028B00007D0402802D0202840F01981FFF7D8F82F
:1028C00017E16878092800F21281DFE810F00A00A9
:1028D0001E00100128001001530074001001300088
:1028E0003E00FFF720F900F20281E888022840F05C
:1028F000FE80D4F8A40203222146002808BF01224A
:1029000041F80C2F2046022271E0FFF70CF900F28B
:10291000EE806888012840F0EC80002004E06888A0
:10292000012840F0E6800120C4F8A402DCE0E88839
:10293000012840F0DC8094F89C02411E022950D20C
:102940000020214641F8080F4FE068886A4DC1B267
:102950002870022980F0CB8094F89C02032849D08B
:10296000022840F06580002900F0BE80032084F832
:102970009C024AE0A888002840F0B980E888002836
:1029800040F0B58068887F2800F2B18094F89C12EE
:10299000032900F0AC80C5B284F89E022046294687
:1029A000FFF70DFEFFF7AFF8002D0CBF012002204E
:1029B00084F89C029DE000204FF0FF31ADF8060046
:1029C000688801EB1021062900F29180DFE801F010
:1029D0000437248F8F3D4700D4F8B012207C0A685A
:1029E0006FE0032840F08380211D20460122FFF77D
:1029F000C4FB7EE000293ED06068012800F07480AE
:102A0000C1B22046FFF78CFB297820466160FFF7B2
:102A100037FF022868D16AE0C0B2052867D8DFE82E
:102A200000F0033B3F43474BD4F8B002426846E016
:102A3000FFF746F829782046FFF772FB59E0217C22
:102A4000D4F8B40201B3C16A1FE0207C00284ED143
:102A5000D4F8B402416B0DF10600884734E0207CC5
:102A6000002844D1D4F8B402016B0DF10600884768
:102A7000014607200EE000206060022084F89C02DE
:102A80002046FFF74DFB2FE0816A0DF106008847D5
:102A900001460220487018E0D4F8B00282680EE0C7
:102AA000D4F8B002C2680AE0D4F8B002026906E0C5
:102AB000D4F8B002426902E0D4F8B0028269B2B13F
:102AC000207C0DF1060190470146BDF8060048B193
:102AD000EA883AB1904238BF02462046ADF8062057
:102AE000FFF74BFBE88820B9FFF70DF801E0FEF790
:102AF000E7FF0020BCBD00BF20010020B0B50446A8
:102B000008780A4610F060000AD0402801D020283A
:102B100064D1D4F8B40211468368204698475FE038
:102B20005078117998B101282AD0032856D194F809
:102B30009C02032828D1508800285BD1480659D030
:102B4000D088002856D12046FFF76DFD52E094F85A
:102B50009C02032824D0022840D148063ED111F01F
:102B600080004FF0140108BF4FF4AA710022625098
:102B700004F114010028204608BF04F5AA7145E0BD
:102B800094F89C0203282DD0022827D1480625D08E
:102B90002046FFF748FD20468021FFF744FD1FE057
:102BA00001F00F00802900EB800004EB80002CBFB7
:102BB0008069D0F8580188B101F07F00802900EBCE
:102BC000800004EB800000F1140538BF00F5AA7501
:102BD00041F08000802810D1002014E0FEF770FF43
:102BE0000020B0BD50880028FAD1480602D0204607
:102BF000FFF789FBFEF787FFF2E72046FFF778FC37
:102C0000002818BF01202860204629460222FFF72D
:102C1000B4FAE5E7B0B5044608780D4610F0600058
:102C200018BF40280ED1FEF77EFF0DD8A88810F0FF
:102C3000FE0F09D1FEF71CFFE98839B930B9FEF75C
:102C400062FF03E02028EED0FEF73AFF0020B0BD7F
:102C5000704700000048704724030020F0B50E784C
:102C6000CD7847F2706330F8262022EA030473001F
:102C7000032D08D84FF0000CDFE805F002080D0B1B
:102C800044F4007407E04FF0010C04E044F4806465
:102C900001E044F4C064834A40F60F7748F2800EA6
:102CA000144320F8134030F813403C40344322438F
:102CB00020F813200A7B002A57D030F8132040F662
:102CC0000F6422400EF58074224320F8132000EB9D
:102CD0000612B0F850400E89144426F00106A4F8FC
:102CE0000064B0F8504022444C8924F00104A2F85A
:102CF000084430F81320497800295BD0510409D5E5
:102D000030F8131040F60F7211400EF58042114357
:102D100020F8131030F81310490609D530F81310B5
:102D200040F60F7211400EF14002114320F81310CB
:102D300030F8131040F60F7211400EF58042114327
:102D400040F63F7220F8131030F8131011400EF1C6
:102D500020024A40012D08BF41EA0E0220F813204C
:102D600030F8131043F60F7256E03201B0F850609D
:102D7000CF884C7827F00107002C51D081183144BE
:102D8000A1F8007430F81310490609D530F8131073
:102D900040F60F7211400EF14002114320F813105B
:102DA00030F8131040F63F721140012D35D00EF16E
:102DB000200271E0510409D530F8131040F60F726B
:102DC00011400EF58042114320F8131030F8131013
:102DD000490609D530F8131040F60F7211400EF174
:102DE0004002114320F8131030F8131040F60F7210
:102DF00011400EF14002114343F60F7220F81310F8
:102E000030F8131011400EF54052514040F63F7219
:102E100020F8131030F81310114041EA0E013CE085
:102E20000244941902F20C45A4F808740E69B0F833
:102E300050103EB13E2E0ED806F0010202EB5602B3
:102E4000960213E04A5BE84C22F4F8424A534A5B8C
:102E500042EA04060AE0F4064FF0FF324FEA561445
:102E600008BF02EB5614E04A42EA84266E5230F85C
:102E70001310490409D530F8131040F60F721140B1
:102E80000EF58042114320F8131030F8131043F66A
:102E90000F7211400EF54052514020F81310604659
:102EA000F0BD00BF8080FFFF00207047F0B50A78BA
:102EB0000D7B4C78510030F8223048F280021DB36F
:102EC00054B35B0401D5FEF7E8FD30F8113002F58C
:102ED000804540F63F745B0643F60F7309D530F822
:102EE000116040F60F773E4002F140073E4320F864
:102EF000116030F8116040F60F773E40354320F8FE
:102F0000115048F280051EE0ACB15B0640F63F73FD
:102F10001FD502F1400514E05B0401D5FEF7BDFDAD
:102F200030F8113002F1400543F60F745B0640F6AD
:102F30003F73D4D4DDE75B0443F60F7309D502F584
:102F4000804540F60F7430F8116034402C4320F86F
:102F5000114030F8114023401A4320F8112000207E
:102F6000F0BD00207047002070470121A0F84010FC
:102F70000021A0F84010A0F84410A0F85010B0F8BC
:102F8000401041F43F41FEF75ABDB0F8401044F202
:102F9000FF021140FEF753BD002070470A7B92BB31
:102FA000B0B50A784C7830F8223052009CB15B06FC
:102FB00048F2A00309D530F8124040F60F752C40B6
:102FC00003F120052C4320F81240C978012918D0BC
:102FD00040F63F710FE059044BF2800309D530F8F9
:102FE000121040F60F74214003F58054214320F85D
:102FF000121043F60F7130F812402140594020F86A
:103000001210BDE8B04000207047000010B50A78EB
:103010004978094B002940F63F7108BF03F57F63EB
:1030200008BF43F60F7130F822402140594020F884
:103030002210002010BD00BF9080FFFFF8B50446AD
:103040000E6988690D46811B38BF0021A96138BF10
:103050000646287B6978012924D1C0B32878B3B209
:1030600034F8201049064FEA0011B4F8500021440A
:10307000084459BFA0F8046405F10800A0F80C64E6
:1030800005F10A0002886969204600F015F96878A0
:10309000E0B3012842D1FEF72AFD544A114301F55D
:1030A000805138E010B32878002940F08080B4F8CF
:1030B00050100201002E214401F204414BD03E2E5B
:1030C00051D806F0010303EB56039B0256E0EA8851
:1030D0006969B3B2204600F0EFF8B4F85000211847
:1030E000287801EB0011A1F8046418E0B4F850004E
:1030F000204400F20C4128780201AEB13E2E1CD8CB
:1031000006F0010303EB56039B0222E0FEF7EFFCFF
:10311000374A1143103124F8201000E0287840F697
:103120003F7248F2B00146E0535A23F4F843535239
:10313000535A43F40043535239E0F5064FF0FF333E
:103140004FEA561508BF03EB56154FF4004343EA08
:1031500085238B522BE0535A234D23F4F8435352CB
:10316000535A2B430AE0F5064FF0FF334FEA56154A
:1031700008BF03EB56151C4B43EA85238B52B4F86A
:103180005010214401F20C434EB14BF280013E2E0F
:1031900019D806F0010505EB5605AD021FE0D15A1E
:1031A00021F4F841D152D15A41F40041D15243F6B1
:1031B0000F724BF2800134F820301A40514024F84D
:1031C00020100020F8BDF7064FF0FF354FEA5617E4
:1031D00008BF05EB56174FF4004545EA87259D5279
:1031E00043F60F72E7E700BF0080FFFF80B0FFFFEC
:1031F000B080FFFFB0F8401041F43F41FEF71FBC24
:1032000000207047002070470148FDF7CBBB00BF8E
:10321000580A0020B0F84400704710B500EB420097
:1032200000F58062481C590831B132F8044B01396D
:1032300020F8014C0230F7E7D9071CBF118800F8CD
:10324000011C10BD7FB51548154C00224FF4805568
:103250000026C168016841F0040101604FF480510B
:10326000006800F00400009000982046FDF7EBF99C
:1032700002206946CDE902601120CDE900502046C8
:10328000FDF706F96420FCF7D5FF20464FF4805186
:10329000FDF794F80348012101607FBD181002403A
:1032A00000080140E00442420020704711B980212B
:1032B000A0F84C100020704700EB42005A1C00F5AB
:1032C000806052082AB131F8023B013A20F8043BF1
:1032D000F8E77047FEE780B5FDF75CF8002080BD99
:1032E000B0B51E4C21444BB1013B1446002CFAD022
:1032F00011F8015B013C00F8015BF7E70020B0BD6D
:103300002DE9F04385B08146002004939846174686
:103310000190B1FBF2F0114900FB021669460396D9
:1033200001A8FCF799FFBF08B8F1000F11D00024E5
:10333000002559F82520022031460023FCF7E2FF42
:10334000043401350436BD42F3D3A144A8F1010889
:10335000EAE7002005B0BDE8F08300BF00380008B0
:10336000F8B5FDF717F80D4D0D4E00240020C7B23B
:103370000C2F0ED27A59B859904207D0013007D19C
:10338000B91902200023FCF7BDFF0134381DEEE718
:10339000FEE7FCF7AFFFE0B2F8BD00BFE8F7FF1FA4
:1033A000F4370008FDF762F9FEF765FEFFF74AFF04
:1033B000FEF7ACFAFEF7F8FAFFF7D2FF18B10220D9
:1033C000FEF77EF9FBE7FEF705FB0520FEF778F92F
:1033D000FBE702E008C8121F08C1002AFAD17047B3
:1033E0007047002001E001C1121F002AFBD1704785
:1033F00000000000000000000102030406070809A5
:1034000000000000010203040006000000000000AC
:1034100000000000000000000000000300808300A6
:103420008002021F00000053544D20202020205015
:10343000726F6475637420202020202020202030AB
:103440002E30310068340008000000202001000008
:10345000D23300088835000820010020E00F00006A
:10346000E23300080000000001000000100000002E
:10347000C9210008F52100080122000825220008C2
:103480004D220008AD210008D52100080024F400D9
:10349000120100020000004083042A5700020102CA
:1034A0000301000004030904E52600088326000840
:1034B0003B27000800000000000000006F26000805
:1034C0007926000800000000000000000000000055
:1034D000CD260008C1260008D9260008B526000818
:1034E00009022000010104C032090400000208069C
:1034F0005005070581024000000705010240000059
:1035000009022000010104C032090400000208067B
:1035100050050705810200020007050102000200B4
:103520000A06000200000040010000000907200018
:10353000010104C032090400000208065005070515
:103540008102400000070501024000003B20000806
:103550002920000845200008492000084D200008C7
:103560005F200008372000081F3400081A030000FD
:10357000000000000000000000000000000000004B
:08358000000000000000000043
:04000005080000ED02
:00000001FF
